:100000000C942A000C943F000C943F000C943F0089
:100010000C943F000C943F000C943F000C943F0064
:100020000C943F000C943F000C943F000C943F0054
:100030000C943F000C943F000C943F000C943F0044
:100040000C943F000C943F000C943F000C943F0034
:100050000C943F0011241FBECFE5D8E0DEBFCDBF1A
:1000600010E0A0E6B0E0EEE9F2E002C005900D92EB
:10007000A836B107D9F70E9402010C944D010C94E7
:100080000000613029F4E82FF0E08FEF81830895BC
:10009000E82FF0E011820895413069F4E82FF0E094
:1000A000218181E090E002C0880F991F6A95E2F7F4
:1000B000822B81830895E82FF0E0218181E090E098
:1000C00002C0880F991F6A95E2F780958223818389
:1000D0000895E82FF0E0828121E030E002C0220F95
:1000E000331F6A95E2F7282B22830895E82FF0E06A
:1000F000828121E030E002C0220F331F6A95E2F7CF
:100100002095282322830895E82FF0E06283089544
:10011000CF93C82F60E083E30E9476006C2F80E3CA
:100120000E94840061E083E30E94690000C000C077
:1001300061E083E30E94760085E88A95F1F700008C
:10014000CF91089561E080E30E94410041E060E0CA
:1001500083E30E944C0041E061E083E30E944C0095
:1001600060E080E30E94840061E083E30E94760007
:100170008FEC97E00197F1F700C0000088E30E9440
:1001800088008EE00E94880081E00E9488008FEC49
:1001900097E00197F1F700C0000086E00E94880018
:1001A0000895CF93C82F60E083E30E9469006C2F0D
:1001B00080E30E94840061E083E30E94690000C044
:1001C00000C061E083E30E94760085E88A95F1F73C
:1001D0000000CF9108950F931F93CF938C01C0E03F
:1001E00003C00E94D100CF5FF801EC0FF11D8081A8
:1001F0008111F7CFCF911F910F91089580B710BE55
:1002000018B8089541E066E083E30E944C0041E0A5
:1002100067E083E30E944C0066E083E30E9476007F
:1002200067E083E30E9476000E94A2000E94FE0025
:100230002FE788E391E0215080409040E1F700C033
:100240000000459B15C066E083E30E94690067E0FB
:1002500083E30E94760080E690E00E94EB008FE04E
:1002600097E20197F1F700C000004599FECFE9CF72
:1002700067E083E30E94690066E083E30E94760002
:1002800084E690E00E94EB008FE097E20197F1F79F
:0E02900000C00000459BFECFD4CFF894FFCFF6
:08029E00522B2000522D20001C
:00000001FF
